:100000000C94B4040C94D1040C94D1040C94D10439
:100010000C94D1040C94D1040C94D1040C94D1040C
:100020000C94D1040C94D1040C94D1040C94D104FC
:100030000C94D1040C94D1040C94D1040C94D104EC
:100040000C94D1040C94D1040C94D1040C94D104DC
:100050000C94D1040C94D1040C94D1040C94D104CC
:100060000C94D1040C94D10405A84CCDB2D44EB953
:100070003836A9020C50B9918688083CA6AAAA2A4B
:10008000BE000000803F08000000BE922449123EDE
:10009000ABAAAA2ABECDCCCC4C3E00000080BEABA1
:1000A000AAAAAA3E00000000BF000000803F000096
:1000B000000000084178D3BB4387D1133D190E3CA3
:1000C000C3BD4282AD2B3E68EC8276BED98FE1A9DA
:1000D0003E4C80EFFFBE01C4FF7F3F0000000000E8
:1000E0000664EC1B3C04BC163E3BE5B93CC93C37FE
:1000F000C29E5A3D660498083EEA69AAAA3E0000DC
:1001000000803F07634236B79BD8A71A3968561854
:10011000AEBAAB558C1D3CB7CC5763BD6DEDFD75CC
:100120003EF6177231BF000000803F004552524F2B
:10013000523A0A45787072657373696F6E20746FF6
:100140006F0A636F6D706C65782E004552524F5286
:100150003A205661726961626C650A6E616D652054
:10016000746F6F206C6F6E672E004552524F523A7B
:10017000204E756D6265720A6C69746572616C20DF
:10018000746F6F0A6C6F6E672E004552524F523A71
:10019000204D697373696E670A76616C75652E0010
:1001A0004552524F523A204E6F740A746F70206C51
:1001B0006576656C2E004552524F523A204261647A
:1001C0000A76616C75652E004552524F523A2044B2
:1001D00069766964650A6279207A65726F2E0045D6
:1001E00052524F523A204261640A6F706572616EDA
:1001F0006420747970652E004552524F523A204265
:1002000061640A64657374696E6174696F6E2E004F
:100210004552524F523A2046696C650A65786973B7
:1002200074732E004552524F523A204261640A6163
:100230006D6F756E742E004552524F523A205374B2
:100240006F726167650A69732066756C6C2E004574
:1002500052524F523A204E616D652069730A746F95
:100260006F206C6F6E672E004552524F523A204DF0
:10027000697373696E670A66696C652E0045525230
:100280004F523A204261640A696E6465782E0045D7
:1002900052524F523A20537461636B2D0A68656164
:1002A0007020636F6C6C6973696F6E2E00455252DB
:1002B0004F523A204D697373696E670A636F6D6DB3
:1002C000612E004552524F523A204D697373696E48
:1002D000670A706172656E7468657369732E004594
:1002E00052524F523A204D697373696E670A6272B7
:1002F00061636B65742E004552524F523A204D692E
:100300007373696E670A71756F746174696F6E20BB
:100310006D61726B2E004552524F523A204D6973F7
:1003200073696E670A61706F7374726F7068652E9F
:10033000004552524F523A204261640A6172677519
:100340006D656E7420747970652E004552524F525F
:100350003A204261640A627265616B207374617451
:10036000656D656E742E004552524F523A204261BF
:10037000640A636F6E74696E75650A73746174657F
:100380006D656E742E004552524F523A20426164A0
:100390000A656E642073746174656D656E742E00F9
:1003A0004552524F523A204261640A73746172742A
:1003B000206F660A65787072657373696F6E2E00C0
:1003C00044554F2054726176656C204F530A566530
:1003D0007273696F6E20312E300052756E6E696EC9
:1003E000672E2E2E0053617665642066696C652E3B
:1003F00000536176696E672E2E2E0044656C65741D
:1004000065642066696C652E0052656E616D656479
:100410002066696C652E00456E746572206E657786
:10042000206E616D652E004372656174656420669F
:10043000696C652E00456E7465722066696C652076
:100440006E616D652E006304710481047C045A049E
:10045000990494045A048D048604476574207369D2
:100460007A6500446F206E6F742064656C657465F6
:10047000005965732064656C657465005175697415
:1004800000536176650044656C6574650052656E65
:10049000616D6500456469740052756E0043726554
:1004A0006174652066696C650041726520796F75BD
:1004B00020737572653F00546578742045646974D3
:1004C0006F720046696C65204C6973740028537024
:1004D00061636529001A0D111B0E0B0C0C0B150521
:1004E00011050C0507050205FD04F804F404F004E9
:1004F00056616C00492F4F004D617468004374725F
:100500006C004173676E004F7065720050756E63CA
:10051000004E756D004C65747400A105940583054B
:1005200068055A054F05430537052C05B2B3B4B528
:10053000B6B7B8AFB0B1B9BABCBBBDBEBFC0C1C21F
:10054000C3C4C5ACA9AAABADAEA5A6A7A8A3A498E1
:10055000999A9B9C9D9E9FA0A1A23D8B8C8D8E8F76
:1005600090919293949596972B2D2A2F2585868787
:10057000883E3C898A808182215B5D267C5E7E8309
:10058000843A3B2C27225C5B5D2829202E3F5F406C
:1005900023247B7D303132333435363738392E2DB4
:1005A000654142434445464748494A4B4C4D4E4FAE
:1005B000505152535455565758595A010100000191
:1005C0000000FF0100000002010101010101010121
:1005D0000202010101010103020303030201000001
:1005E00002010101010203020101010102020303F0
:1005F000040404040505060708090A0B0C0C0C0C7E
:100600000C0C0C0C0C0C0C0C0C0C2A2F252B2D8319
:10061000843E3C898A8788265E7C8082813D8B8CE3
:100620008D8E8F90919293949596972D8586217EAD
:100630002F082C0829082608230820081D081A0856
:100640001708140811080E080B0808080508020806
:10065000FE07FA07F607F307F007ED07E907E507D6
:10066000E107DB07D507D007C907C207BC07B607F4
:10067000B107AC07A607A007970792078B07840767
:100680007E07790774076F07690764075F075A07D2
:1006900055074F074A0744073F073A0735072D0715
:1006A00025071D0716070E0706070007F706F006C1
:1006B000E706DE06D406CD06C506BC0666496D70A3
:1006C0006F72743A006657726974653A00665265D3
:1006D00061643A00665365744E616D653A00664424
:1006E000656C6574653A00664372656174653A00CD
:1006F0006653697A653A00664578697374733A009F
:100700006D656E753A007265714E756D3B00726570
:10071000715374723B007072696E743A0065717542
:100720005265663A0072656D5375623A00696E7380
:100730005375623A007375623A0072656D3A0069EA
:100740006E733A00636F70793A006C656E3A0074AC
:100750007970653A007374723A006E756D3A006C88
:100760006F673A00706F773A00737172743A007471
:10077000616E3A00636F733A0073696E3A006365A5
:10078000696C3A00666C6F6F723A00726F756E64D6
:100790003A006162733A0072616E64496E743A00A5
:1007A00072616E643B00717569743B007265743BE5
:1007B000007265743A0066756E633A00636F6E741A
:1007C0003B00627265616B3B007768696C653A005B
:1007D000656E643B00656C73653B00656C69663AE9
:1007E0000069663A003E3E3D003C3C3D005E3D00F7
:1007F0007C3D00263D005E5E3D007C7C3D00262663
:100800003D00253D002F3D002A3D002D3D002B3DA4
:10081000003C3D003E3D00213D003D3D002D2D00B2
:100820002B2B003E3E003C3C005E5E007C7C0026A4
:1008300026004E414E494E495459494E46CDCCCCE6
:100840003D0AD7233C17B7D13877CC2B329595E6A4
:10085000241FB14F0A000020410000C84200401C84
:100860004620BCBE4CCA1B0E5AAEC59D7400407AD1
:1008700010F35A00A0724E18090010A5D4E8000029
:10088000E87648170000E40B54020000CA9A3B00C7
:100890000000E1F505000080969800000040420F3E
:1008A000000000A08601000000102700000000E802
:1008B00003000000006400000000000A00000000C7
:1008C000000100000000002C76D888DC674F082368
:1008D000DFC1DFAE59E1B1B796E5E3E453C63AE6CE
:1008E00051997696E8E6C28426EB898C9B62ED40AE
:1008F0007C6FFCEFBC9C9F40F2BAA56FA5F49005FD
:100900005A2AF75C936B6CF9676DC11BFCE0E40D30
:1009100047FEF520E6B500D0ED902E030094357724
:10092000050080841E080000204E0A000000C80C4C
:10093000333333330F986E12831141EF8D211489B5
:100940003BE65516CFFEE6DB18D1844B381BF77C0F
:100950001D901DA4BBE424203284725E228100C954
:10096000F124ECA1E53D270011241FBECFEFD8E014
:10097000DEBFCDBF11E0A0E0B1E0EEE5FBE702C0D5
:1009800005900D92AA30B107D9F725E0AAE0B1E0B1
:1009900001C01D92A43EB207E1F70E94D92F0C942A
:1009A000AD3D0C9400008EBD0DB407FEFDCF089543
:1009B000FB012491FC012193CF016F5F7F4F211137
:1009C000F7CF08950F931F93CF93DF9340911801B2
:1009D00050911901A0E0B0E027ED35E0EC01289638
:1009E0004115510539F4F901E752F140E817F907CB
:1009F00074F458C0FA0136970190F081E02DE40FAD
:100A0000F51F89010E1B1F0B0C171D0770F0281B0B
:100A1000390BC0911001D0911101209779F0E88134
:100A2000F9813696EC0FFD1F0BC0FA0134979A013D
:100A300028503109DA0140815181D2CFE7E2F1E05B
:100A4000E9012897CE17DF0768F1F9013297B183E2
:100A5000A08332975183408332979183808331976B
:100A60006083109729F4309319012093180103C073
:100A700014972D933C934115510529F43093170198
:100A80002093160104C0FA013297318320838091AC
:100A90000C0190910D01019690930D0180930C0132
:100AA000C90102C080E090E0DF91CF911F910F91CA
:100AB0000895FC01329720813181329780819181A4
:100AC0002115310529F4909319018093180104C070
:100AD000F901349791838083009729F430931701AB
:100AE000209316010895FC013297318320830895E5
:100AF000CF93DF93EC01888199810E945905CE0143
:100B0000DF91CF910C9459050F931F93CF93DF93EF
:100B10008C0161E082E090E00E94E204EC01009729
:100B200019F480E090E00EC062E0C80103960E94D4
:100B3000E204FC010097A9F3998388831183008361
:100B40001282CE01DF91CF911F910F9108950F93E3
:100B50001F93CF93DF938C0161E082E090E00E94CD
:100B6000E204EC01009719F480E090E025C025E054
:100B7000209FC001219F900D112463E002960E94E6
:100B8000E204009789F399838883FC011183008331
:100B90009C0180E090E041E02B5F3F4F8017910780
:100BA00054F4F901339740833196108211821282F6
:100BB00013820196F1CFCE01DF91CF911F910F915A
:100BC00008959093DE058093DD051092E005109264
:100BD000DF057093DC056093DB054093250144231A
:100BE00021F081E08093E10502C01092E105ECE183
:100BF000F1E081E0E532F80711F01192FACF0895A3
:100C0000E0911001F0911101A481B5818D919C9129
:100C1000009721F09583848381E0089580E0089512
:100C200044989DE09A95F1F7000098B18F70907FFD
:100C3000892B88B9449A8DE08A95F1F70000449891
:100C40009DE09A95F1F70000089545980E941006DE
:100C500085E88A95F1F700000895CF93C82F459A4B
:100C600082958F700E9410068C2F8F700E94100644
:100C700085E88A95F1F70000CF9108956F927F92F1
:100C80008F929F92AF92BF92CF92DF92EF92FF929C
:100C90000F931F93CF93DF9300D000D0CDB7DEB773
:100CA0003C014801590110161106120613060CF0FA
:100CB00072C0C0900101D0900201E0900301F09059
:100CC00004019701860101501109210931094017DA
:100CD00051076207730749F480912601F30180836D
:100CE00041E050E060E070E008C04C155D056E0525
:100CF0007F0529F440E050E0BA019FEF45C0299AF2
:100D0000FDE0FA95F1F70000299883E049835A83C2
:100D10006B837C830E94D3045A81852F0E94D30465
:100D20004981842F0E94D30449815A816B817C813F
:100D300040930101509302016093030170930401F9
:100D4000D9CF0DB407FEFDCF8EB5F301E40FF51F2B
:100D5000808380932601C0900101D0900201E09031
:100D60000301F09004018FEFC81AD80AE80AF80AC4
:100D7000C0920101D0920201E0920301F0920401BD
:100D80004F5F5F4F6F4F7F4F481559056A057B05D1
:100D900014F49EBDD6CF0F900F900F900F90DF915F
:100DA000CF911F910F91FF90EF90DF90CF90BF9068
:100DB000AF909F908F907F906F9008950F931F93A7
:100DC000CF93DF931F92CDB7DEB7AB01BC0101E03B
:100DD00010E020E030E0CE0101960E943E068981BD
:100DE0000F90DF91CF911F910F910895BF92CF92F5
:100DF000DF92EF92FF920F931F93CF93DF93EC015B
:100E00006A017B018C01B12CC701B6010E94DE068C
:100E10009FEB980FB11005C09A3158F08F3549F00B
:100E20001FC09A3130F090ED980F9A3010F08F3546
:100E300079F4F80181938F01FFEFCF1ADF0AEF0AEF
:100E4000FF0AB3948FE0B812DFCF8BE491E00AC0C1
:100E5000CB0DD11DB7FCDA951882B601C7010AC0C7
:100E600088EF91E090930B0180930A016FEF7FEF81
:100E70008FEF9FEFDF91CF911F910F91FF90EF9038
:100E8000DF90CF90BF900895CF92DF92EF92FF92C4
:100E9000CF936B017C018FEFC81AD80AE80AF80AD1
:100EA000C0E0C701B6010E94DE068C3211F4CF5FAC
:100EB00004C08A3041F0882331F08FEFC81AD80A75
:100EC000E80AF80AEECF8C2FCF91FF90EF90DF90D9
:100ED000CF9008950F931F93CF93DF938C01FC0164
:100EE00001900020E9F7CF010197801B910B0E9430
:100EF0008405EC01009731F088819981B801029650
:100F00000E943C39CE01DF91CF911F910F9108953E
:100F1000CF93DF93DC010D900020E9F71197A81B18
:100F2000B90BE0911001F091110120813181E901AB
:100F30002696CE0FDF1F2A0F311DA7FD3A95B90166
:100F4000685F7F4F225F3F4F2E0F3F1F409116017A
:100F5000509117014115510519F04850510902C02F
:100F600047ED55E042175307A0F07183608322815B
:100F7000338139832883E0911001F0911101D383EB
:100F8000C283BC01CE0107960E943C39CE01029675
:100F900002C080E090E0DF91CF910895CF93DF937E
:100FA000FC0101900020E9F73197E81BF90B9C0147
:100FB000A901481B590BB9012F5F3F4FEB01A881D5
:100FC000A032B1F34115510551F09F01241B350B9F
:100FD000A9014F5F5F4FDF91CF910C942139DF91D1
:100FE000CF9108957F928F929F92AF92BF92CF92AE
:100FF000DF92EF92FF920F931F93CF93DF93EC0159
:101000004A015B0120E030E0A901C501B4010E9462
:1010100079347501640187FF04C0F7FAF094F7F89A
:10102000F09420E836E948E15BE4C701B6010E948C
:101030005736181654F02FE632E143E85AE3C70159
:10104000B6010E94793487FF76C020E030E0A90124
:10105000C701B6010E947934882309F46CC0712C51
:1010600020E030E040E251E4C701B6010E9457366B
:1010700087FD0CC020E030E040E251E4C701B6013A
:101080000E9480346B017C017394EACF20E030E051
:1010900040E85FE3C701B6010E94793487FF0CC0C6
:1010A00020E030E040E251E4C701B6010E94A036E2
:1010B0006B017C017A94EACF20E030E0A901C50100
:1010C000B4010E94793487FF04C0F7FAF094F7F86E
:1010D000F0948E0124E040E1C701B6010E949538EA
:1010E000CE010E94CE07FE0101900020E9F7319762
:1010F000EC1BFD0B6E2F772767FD7095FE01E60F49
:10110000F71F85E680836F5F7F4F6C0F7D1F4AE07E
:10111000872D992787FD9095DF91CF911F910F9192
:10112000FF90EF90DF90CF90BF90AF909F908F9007
:101130007F900C9443398E0124E044E1C501B40151
:101140000E949538CE010E94CE0780E020E0FE018B
:10115000E80FF11D87FDFA9590819E3239F030ED50
:10116000390F3A3020F09D3211F003C021E08F5F3B
:10117000EECF2223A9F0181674F4FE01E80FF11D3A
:1011800087FDFA95319790812FEC290F293018F0BF
:1011900081509E3281F7C80FD11D87FDDA951882E4
:1011A000DF91CF911F910F91FF90EF90DF90CF9043
:1011B000BF90AF909F908F907F900895AF92BF9215
:1011C000CF92DF92EF92FF920F931F93CF93DF9313
:1011D000CDB7DEB761970FB6F894DEBF0FBECDBFB7
:1011E0005C01C12CD12C760101E010E020E030E060
:1011F000B701A601CE0141960E943E068989813041
:10120000C1F400E110E020E030E0B701A6014F5F3B
:101210005F4F6F4F7F4FCE0101960E943E06B50192
:10122000CE0101960E943339892B19F4B601C7010A
:101230000EC084E0D80EE11CF11CC11480E8D80671
:10124000E104F10489F66FEF7FEF8FEF9FEF619676
:101250000FB6F894DEBF0FBECDBFDF91CF911F91C7
:101260000F91FF90EF90DF90CF90BF90AF900895D7
:101270000F931F93CF93DF938C01EB01229620975E
:1012800079F0BE01695F7F4FC8010E943339892B15
:1012900019F4CE01029606C00990D881C02DEFCF77
:1012A00080E090E0DF91CF911F910F910895EF9230
:1012B000FF920F931F93CF93DF93EC01CB01FE01BD
:1012C0003697E080F180DE0117976C91E816F906F9
:1012D00074F40E94E2048C01009769F0A701BE013A
:1012E0000E941839CE010E945905C80106C0918399
:1012F0008083CE0102C080E090E0DF91CF911F910A
:101300000F91FF90EF9008950F931F93CF93DF936A
:101310008C01EB01DC01ED91FC91DF0116974D9101
:101320005C9185E0869F9001879F300D11242E5F90
:101330003F4F421753075CF057FF02C04D5F5F4FAE
:101340005595479555954795241735078CF48AE0B0
:101350008C9FB0018D9F700D11246E5F7F4FCF0168
:101360000E945709FC01009739F0D8018D939C9396
:10137000D183C083CF0102C080E090E0DF91CF91A4
:101380001F910F910895BF92CF92DF92EF92FF923B
:101390000F931F93CF93DF938B016A01DC01ED91D3
:1013A000FC91E080F18077FD03C0E616F7061CF49F
:1013B0008DE792E009C0B7016F5F7F4F0E948409FB
:1013C000009741F48FE892E090930B0180930A011B
:1013D00080E01DC025E0B22EB09EE001B19ED00D90
:1013E00011242296C80FD91FE01AF10ABE9CA00151
:1013F000BF9C500D1124BE01CE0105960E942139DB
:10140000F601DE0101900D92BA94E1F781E0DF91DF
:10141000CF911F910F91FF90EF90DF90CF90BF90F1
:1014200008950F931F93CF93DF938C01EB01DC01A1
:10143000ED91FC91DF0116972D913C91CB01039624
:10144000281739075CF037FF02C02D5F3F4F3595F5
:101450002795359527958217930774F4BE016E5F23
:101460007F4F660F771FCF010E945709FC0100973D
:1014700039F0D8018D939C93D183C083CF0102C0F2
:1014800080E090E0DF91CF911F910F910895CF926E
:10149000DF92EF92FF920F931F93CF93DF93FC01A4
:1014A0008B01EA0180818230A1F5C180D280D60112
:1014B000ED91FC91E080F18077FD0BC06E157F050A
:1014C00044F457FD06C0E416F5061CF0461757070E
:1014D0001CF48DE792E05FC0A7014C1B5D0B4F5FD2
:1014E0005F4FBE016E5F7F4F6E0F7F1FC801029678
:1014F0008E0F9F1F0E942139C01BD10BB7016C1B9F
:101500007D0BC6010E94110A892B09F43FC081E0BE
:1015100047C08330F1F5C180D280F601808191818E
:10152000DC01ED90FC9077FDD4CF6E157F058CF635
:1015300057FDCFCFE416F50664F2461757074CF275
:101540009701241B350BE5E0E29FA001E39F500DBE
:101550001124EC9FB001ED9F700D11246E5F7F4F41
:10156000680F791FE09F9001E19F300D11242E5FDD
:101570003F4F820F931F0E942139C01BD10BB7012F
:101580006C1B7D0BC6010E948409BECF8FE892E0E0
:1015900002C081E393E090930B0180930A0180E005
:1015A000DF91CF911F910F91FF90EF90DF90CF903F
:1015B00008959F92AF92BF92CF92DF92EF92FF92E7
:1015C0000F931F93CF93DF93DC01EB01FA018C9112
:1015D0008230F1F58081823019F081E393E05DC0C3
:1015E00011968D919C9112970180F281E02DC0801F
:1015F000D180DC01ED91FC91E080F180F601008169
:10160000118177FD03C0E616F7061CF48DE792E022
:1016100044C0B701600F711F0E94110A9C0100971E
:10162000D1F1CE0102965901A80EB91EA7014C1B9B
:101630005D0B4F5F5F4F800F911FB501820F931FAE
:101640000E942139B6016E5F7F4FA801C50154C0C9
:10165000833019F68081833009F0BFCF11968D91C8
:101660009C9112970180F281E02DA080B180DC0175
:10167000ED91FC91C080D180F501E080F18077FD93
:10168000C5CFC616D70614F2B6016E0D7F1D0E9497
:101690008409009741F48FE892E090930B018093C6
:1016A0000A0180E02CC055E0952E9C9E80019D9EF5
:1016B000100D11240E5F1F4F080F191FCC1ADD0AE1
:1016C0009C9CA0019D9C500D1124CE0DDF1D9C9E65
:1016D00090019D9E300D11242E5F3F4FB801820F67
:1016E000931F0E9421399E9CA0019F9C500D1124A4
:1016F000B5016E5F7F4FC8010E94183981E0DF910C
:10170000CF911F910F91FF90EF90DF90CF90BF90FE
:10171000AF909F9008952F923F924F925F926F9259
:101720007F928F929F92AF92BF92CF92DF92EF9271
:10173000FF920F931F93CF93DF93CDB7DEB72A9716
:101740000FB6F894DEBF0FBECDBF8C012DB63EB6EE
:10175000DC0153968C9153978F3A19F55C96ED9175
:10176000FC915D978081813039F485E01496019079
:101770000D928A95E1F715C0823009F003C301800C
:10178000F281E02D8081918121E0F801248302968D
:101790000E941439D80115966D937D938D939C9377
:1017A0001897D80153968C915397803B09F05DC0F0
:1017B0005C96ED91FC915D972081213009F04BC042
:1017C000EDB6FEB685E190E09F838E838E819F818A
:1017D0004DB75EB7481B590B0FB6F8945EBF0FBEEE
:1017E0004DBF8DB79EB701966C01418152816381D7
:1017F00074812A870E94F20782E0D80114968C93A4
:10180000C6010E946A072A850097D1F4F801808DED
:10181000918DA28DB38D4FE852E050930B01409310
:101820000A018093D7059093D805A093D905B0936A
:10183000DA0520830FB6F894FEBE0FBEEDBED0C20F
:10184000D80116969C938E9315970FB6F894FEBE0A
:101850000FBEEDBE0AC0223009F094C285E0D80167
:10186000149601900D928A95E1F7D80153968C91C8
:101870005397813B79F481E014968C9314975C968E
:10188000ED91FC915D976081772767FD7095872FBB
:10189000972F25C0823B59F5D8015C96ED91FC91BC
:1018A0005D978081823041F40180F281E02D0190CA
:1018B000F081E02D81E00BC0833009F063C201802C
:1018C000F281E02D0190F081E02D81E0D8011496A5
:1018D0008C9360817181882777FD8095982F0E9475
:1018E0001B35F80165837683878390874DC0833BE2
:1018F00009F04AC0D8015C96ED91FC915D97B080EB
:10190000B2E0BB1215C00180F281E02DC080D18011
:10191000F60180809180C4010E9484057C010097BB
:10192000C1F0DC018D919C91A4014F5F5F4F22C0FB
:1019300023E0B21227C20180F281E02DC080D18065
:10194000D6018D909C90C4010E94A7057C01009750
:1019500041F4F801808D918DA28DB38D2FE832E096
:1019600018C2DC018D919C9125E0289DA001299D44
:10197000500D1124B6016E5F7F4F02960E941839F8
:10198000F801B482F682E582D80153968C91539780
:10199000843B09F06FC05C96ED90FC905D97F70179
:1019A0008581813009F06BC1F7016681778180857F
:1019B00091850E94E8344B015C01D7018C91823003
:1019C00009F044C01A968C91813019F081E393E0BC
:1019D0001EC0F70181819281DC01ED91FC91C080F4
:1019E000D18097FC03C0C814D9041CF48DE792E0A1
:1019F0000EC0F7014384548465847684B6016F5F1A
:101A00007F4F0E94110A009739F48FE892E090937B
:101A10000B0180930A0128C07401F2E0EF0EF11C63
:101A2000E80EF91EA601481959094F5F5F4F23E0E0
:101A3000820E911CB701880D991D0E942139C301A6
:101A4000B2010E94ED34D7016C9314C0833009F0C9
:101A5000BDCFA701465F5F4FB401F701818192813D
:101A60000E94C309811106C0F801808D918DA28D5D
:101A7000B38D93C1D80153968C915397853B39F51B
:101A80005C96ED90FC905D97F701D580F1E0DF1258
:101A9000F6C0F70166817781808591850E94E834E0
:101AA000AB014F5F5F4FC7010E94470A81110FC012
:101AB000F801808D918DA28DB38D8093D705909381
:101AC000D805A093D905B093DA05D08289C1D80191
:101AD00053968C915397863B09F0C1C05C96CD908C
:101AE000DC905D97F6018581813009F04BC18285DC
:101AF000813009F047C166817781808591850E9498
:101B0000E8342B013C01F601638574858585968553
:101B10000E94E834D6014C914230B9F51196ED910E
:101B2000FC91129780809180F401C080D18057FC95
:101B30000BC04C145D0444F477FD06C0C616D706EE
:101B40001CF0641575051CF48DE792E05EC06B0116
:101B5000C418D508C6010E9484057C010097B9F11C
:101B6000DC01AD90BC90B2016E5F7F4F680D791DB6
:101B7000A601C50102960E941839F501EC0DFD1D64
:101B80001282E886F98682E045C04330E1F5D6014D
:101B90001196ED91FC911297A080B180F501C08063
:101BA000D18057FCD1CF4C145D0474F677FDCCCFB7
:101BB000C616D7064CF26415750534F26B01C418CD
:101BC000D508C6010E94A7057C01009719F48FE88B
:101BD00092E01BC0DC018D919C9125E02C9DA00121
:101BE0002D9D500D1124249DB001259D700D1124B3
:101BF0006E5F7F4F6A0D7B1D02960E941839E88642
:101C0000F98683E007C081E393E090930B01809312
:101C10000A0180E0898328852A8329852B8385E032
:101C2000FE013196D801149601900D928A95E1F744
:101C3000D80114968C911497811111C058968D91EA
:101C40009D910D90BC91A02D8093D7059093D805C0
:101C5000A093D905B093DA0581E0F801A7C0D801B7
:101C600053968C915397873B09F041C05C96ED9059
:101C7000FC905D97F701B580F1E0BF16C1F0589672
:101C80008D919D910D90BC91A02D21E333E0309377
:101C90000B0120930A018093D7059093D805A09358
:101CA000D905B093DA0581E0D8018C9399C067011A
:101CB000BAE0CB0ED11CF7016681778180859185D2
:101CC0000E94E834A601C7010E94D90A81110FC001
:101CD000F801808D918DA28DB38D8093D70590935F
:101CE000D805A093D905B093DA05B08279C0D801A0
:101CF00053968C915397883B99F55C96AD90BC9028
:101D00005D97F50185818130E9F59284F1E09F12BC
:101D100039C0D5011B966D917D918D919C911E9737
:101D20000E94E8346B017C01F50166817781808532
:101D300091850E94E834A601C5010E94470A8111DD
:101D40000FC0F801808D918DA28DB38D8093D70542
:101D50009093D805A093D905B093DA05908240C03E
:101D6000D80153968C915397893BD1F55C96ED91B0
:101D7000FC915D97808195812EEF280F223010F421
:101D80008917B1F0F801808D918DA28DB38D21E37B
:101D900033E030930B0120930A018093D705909391
:101DA000D805A093D905B093DA0581E0808318C0E7
:101DB00081E0D80114968C932181328186819781AC
:101DC0002817390729F480E090E0A0E8BFE303C0BA
:101DD00080E090E0DC01F80185839683A783B087DB
:101DE0000FB6F8943EBE0FBE2DBE2A960FB6F894DD
:101DF000DEBF0FBECDBFDF91CF911F910F91FF903E
:101E0000EF90DF90CF90BF90AF909F908F907F909A
:101E10006F905F904F903F902F9008958F929F9278
:101E2000AF92BF92CF92DF92EF92FF921F93CF9328
:101E3000DF93EC018B89833AD1F481E08C830E949B
:101E4000043960E177E20E949833BC01882777FD6E
:101E50008095982F0E941B3520E030E44CE156E439
:101E60000E9480346D837E838F83988706C0EC8DBB
:101E7000FD8D8081813009F0C4C08B89843AB9F529
:101E8000AC8CBD8CF5011581113009F0BAC0F5019B
:101E900061817281838194810E94E8346B017C01AD
:101EA000F50166817781808591850E94E8344B0138
:101EB0005C011C830E940439BC01882777FD809552
:101EC000982FA50194012C193D094E095F092F5F38
:101ED0003F4F4F4F5F4F0E94AC336C0D7D1D8E1DE9
:101EE0009F1D0E941B356D837E838F8398878B890E
:101EF000853A71F4EC8DFD8D81819281A381B4814D
:101F000021E02C83BF778D839E83AF83B88717C171
:101F1000863A79F4EC8DFD8D6181728183819481A3
:101F200021E02C8320E030E040E05FE30E940234B7
:101F30000AC0873A59F4EC8DFD8D618172818381ED
:101F4000948121E02C830E945635F5C0883A59F4DB
:101F5000EC8DFD8D618172818381948121E02C83E0
:101F60000E946634E8C0893A59F4EC8DFD8D618198
:101F700072818381948121E02C830E944F37DBC0E2
:101F80008A3A59F4EC8DFD8D61817281838194814F
:101F900021E02C830E947D34CEC08B3A59F4EC8D25
:101FA000FD8D618172818381948121E02C830E9467
:101FB0009737C1C08C3AE9F4EC8DFD8DC180D28099
:101FC000E380F48020E030E0A901C701B6010E945F
:101FD000793487FF07C0888D998DAA8DBB8D26EB3C
:101FE00031E015C081E08C83C701B6010E945937EA
:101FF000A2C08D3A09F050C0EC8DFD8D15811130D5
:1020000099F0888D998DAA8DBB8D21E333E03093B3
:102010000B0120930A018093D7059093D805A093D4
:10202000D905B093DA0573C081809280A380B48013
:10203000C680D780E084F18420E030E0A901C501AA
:10204000B4010E94793487FF1EC0C701B6010E9407
:102050005635A70196010E9479348823A1F0888D16
:10206000998DAA8DBB8D26EB31E030930B01209327
:102070000A018093D7059093D805A093D905B09312
:10208000DA0518835CC081E08C83A7019601C50145
:10209000B4010E9403374FC08E3A09F050C0EC8D56
:1020A000FD8D1581113039F0488D598D6A8D7B8DEC
:1020B00081E393E020C081809280A380B480C680B9
:1020C000D780E084F18420E030E0A901C501B401AB
:1020D0000E94793418164CF420E030E0A901C701C1
:1020E000B6010E9479341816ACF0488D598D6A8D6E
:1020F0007B8D86EB91E090930B0180930A014093D6
:10210000D7055093D8056093D9057093DA0581E01F
:10211000888315C01C83C501B4010E9460364B0141
:102120005C01C701B6010E9460369B01AC01C5018C
:10213000B4010E9480346D837E838F839887DF9102
:10214000CF911F91FF90EF90DF90CF90BF90AF9015
:102150009F908F9008958AB18F7080618AB98AE1CB
:102160008A95F1F700C089B18F70809580FD51C0CC
:1021700081FD51C082FD51C083FD51C08AB18F7075
:1021800080628AB98AE18A95F1F700C099B19F709F
:10219000909590FD2CC0892F827091FD2AC092FDF0
:1021A0003FC093FD28C08AB18F7080648AB98AE1EC
:1021B0008A95F1F700C089B18F70809580FD1DC0B0
:1021C00081FD1DC082FD1DC08AB18F7080688AB9F3
:1021D0008AE18A95F1F700C089B18F70809580FD02
:1021E00012C081FD12C082FF12C088E0089582E013
:1021F000089583E0089581E0089589E008958DE0D1
:1022000008958BE008958CE008958AE008958FEF9B
:10221000089586E0089587E0089584E0089585E0B4
:1022200008950F931F93CF93DF930E94AB10182F45
:102230008FE097E20197F1F700C0000017FD07C09B
:1022400080910001181307C0C4E1D0E006C08EEFF2
:102250008093000102C0C6E9D0E00EEF0E94AB10EF
:10226000EFE0F7E23197F1F700C0000087FF04C00C
:1022700000930001182FF2CF811306C021971C167E
:102280001D06C4F310930001DF91CF911F910F91B0
:102290000895E82FF0E0EE0FFF1FE05DFA4F259163
:1022A000349180E0F901E80FF11D87FDFA95E49182
:1022B000EE2311F08F5FF6CF089540911A015091EF
:1022C0001B012091DB053091DC0542175307C4F553
:1022D0002091DF053091E005E091DD05F091DE050C
:1022E000E20FF31F90812F5F3F4FE091DD05F091EA
:1022F000DE05E20FF31F40819083992311F0942FA4
:10230000F2CFE091DD05F091DE052091DF053091FF
:10231000E005E20FF31F80838091DF059091E005D7
:1023200001969093E0058093DF0580911A019091CA
:102330001B01019690931B0180931A0181E008957F
:1023400080E00895EF92FF920F931F93CF93DF9356
:10235000FC018081823049F4C181D281A881B98198
:10236000289781E0888318978C9380818330E1F4EB
:102370000180F281E02DC081D18138978081811167
:1023800013C081E08083FE0138978083E990F99043
:1023900000E010E00E151F053CF4CE010E94A211D2
:1023A0000F5F1F4F2596F6CFDF91CF911F910F91B1
:1023B000FF90EF900895CF93DF93EC0160911001AF
:1023C000709111010E943809009749F4609112013F
:1023D00070911301CE01DF91CF910C943809DF91F8
:1023E000CF910895A0911001B09111018D919C9110
:1023F0001197FC013696EA0FFB1FAC01475F5F4F58
:102400000F968A0F9B1F20911601309117012115FD
:10241000310519F02850310902C027ED35E02817A1
:10242000390798F011965C934E9314960D90BC91D9
:10243000A02D109721F01396FC93EE931297B18381
:10244000A08313821282CF01089580E090E0089566
:102450001F93CF93DF9300D000D0CDB7DEB7182FF6
:10246000E0911001F09111010480F581E02D309789
:10247000A9F449835A836B837C830E94F211FC0187
:1024800049815A816B817C81009769F48FE892E0E1
:1024900090930B0180930A0180E013C00280F381C6
:1024A000E02D309731F3148345835683678370871B
:1024B000A0911001B09111011596FC93EE93149721
:1024C00081E00F900F900F900F90DF91CF911F91AF
:1024D00008959F92AF92BF92CF92DF92EF92FF92B8
:1024E0000F931F93CF93DF9300D0CDB7DEB78C014E
:1024F000ADB6BEB6DC0153968C915397813A19F470
:1025000082E08C9348C0803A71F482E0F8018083C5
:10251000048CF58DE02D85E0D801149601900D9284
:102520008A95E1F738C08839B1F5D8015C96ED910C
:10253000FC915D9780818130A9F058968D919D9195
:102540000D90BC91A02D21E333E030930B0120933B
:102550000A018093D7059093D805A093D905B0932D
:10256000DA055CC020E030E0A901618172818381DD
:1025700094810E94793440E050E0BA01811102C098
:1025800081E001C080E00E942812811104C081E036
:10259000D8018C933DC1F8018389893929F400A0C1
:1025A000F1A1E02D82E08483D80153968C9153975A
:1025B0008A3931F49096ED91FC91919782E0848371
:1025C000F80183898C3969F5048CF58DE02D8081C3
:1025D000813041F0F801808D918DA28DB38D21E382
:1025E00033E097C020E030E0A901618172818381EE
:1025F00094810E947934811105C040E050E0BA0115
:1026000082E008C0D80158964D915D916D917C9102
:102610005B9783E00E942812811103C081E0F801DA
:1026200085C0D80153968C9153978D39B1F490960B
:10263000ED91FC91919782E094818483933069F0CD
:102640000190F081E02D3097B9F7F801808D918DE0
:10265000A28DB38D2BE433E05CC0D80153968C91EE
:102660008E3961F5D8019096ED91FC919197848116
:10267000833061F485819681A781B085F801848BD0
:10268000958BA68BB78B0E94000618C00E9400068F
:10269000811108C0F801808D918DA28DB38D27E640
:1026A00033E037C0D8019096ED91FC9191978081ED
:1026B000918191969C938E939097D4CFF8018389C2
:1026C000823A19F481E080833DC08B39D9F500A0AE
:1026D000F1A1E02D9480C580D680E780F0840E942F
:1026E0000006811125C020911001309111018091C7
:1026F0001201909113012817390721F082E0F801A7
:10270000808316C0F801808D918DA28DB38D26E84F
:1027100033E030930B0120930A018093D705909307
:10272000D805A093D905B093DA0581E0808370C005
:10273000F3E09F1207C0D8015496CD92DD92ED923E
:10274000FC925797F80183898F3909F061C0EDB683
:10275000FEB680E190E09A83898389819A812DB7C2
:102760003EB7281B390B0FB6F8943EBF0FBE2DBFE6
:102770008DB79EB701966C01068CF78DE02D4081D8
:102780005181628173810E94F60697FF04C081E047
:10279000D8018C9338C0C6010E94DB110097D1F498
:1027A000C6010E9488070097A9F4F801808D918DD9
:1027B000A28DB38D2FE832E030930B0120930A01F4
:1027C0008093D7059093D805A093D905B093DA05E7
:1027D00081E018C024E0DC012C93F801408D518D7C
:1027E000628D738D11964D935D936D937C931497C9
:1027F00040E050E0BA0182E00E942812811103C03B
:1028000081E0F80180830FB6F894FEBE0FBEEDBEE6
:102810000FB6F894BEBE0FBEADBE0F900F90DF9105
:10282000CF911F910F91FF90EF90DF90CF90BF90CD
:10283000AF909F900895CF93C82F459882958F7041
:102840000E9410068C2F8F700E94100685E88A95D2
:10285000F1F70000CF910895CF93DF931F92CDB78A
:10286000DEB78031C0F46230B0F44C3521F04E3721
:1028700019F442E001C041E090E4699F800D112409
:10288000806849830E941B144981842F0F90DF9137
:10289000CF910C942D060F90DF91CF910895FF9268
:1028A0000F931F93CF93DF93F82E062F47FD07C09A
:1028B000DF91CF911F910F91FF900C942C14E42F76
:1028C000F0E0EE0FFF1FE05DFA4FC591D49110E0EC
:1028D000812F8F0DFE01E10FF11D17FDFA95449137
:1028E000442329F0602F0E942C141F5FF1CFDF9149
:1028F000CF911F910F91FF900895CF92DF92FF9299
:102900000F931F93CF93DF931F92CDB7DEB7182F8E
:10291000062F6A0102303CF5F60141916F01442314
:1029200011F147FF07C0842F49830E944911F82EF7
:10293000498102C0FF24F3942F2D332727FD3095C2
:10294000210F311D17FD3A952131310514F44A301C
:1029500021F40F5F10E04A30E9F2602F812F0E94CE
:102960004F141F0DD7CF0F90DF91CF911F910F9173
:10297000FF90DF90CF900895CF92DF92EF92FF9279
:102980000F931F93CF93DF93CDB7DEB7D82EC62E0C
:10299000EDB6FEB620E030E0FA01E20FF31FE4915D
:1029A0002F5F3F4FE111F8CF8DB79EB7821B930B7E
:1029B0000FB6F8949EBF0FBE8DBF0DB71EB70F5F49
:1029C0001F4FBA01C8010E94D804A8016C2D8D2D9B
:1029D0000E947D140FB6F894FEBE0FBEEDBEDF91CF
:1029E000CF911F910F91FF90EF90DF90CF900895BE
:1029F000CF93C0E040E260E08C2F0E942C14CF5FA8
:102A0000C031C1F7C0E040E261E08C2F0E942C147D
:102A1000CF5FC031C1F7CF9108952F923F924F926F
:102A20005F926F927F928F929F92AF92BF92CF925E
:102A3000DF92EF92FF920F931F93CF93DF9300D01B
:102A400000D000D0CDB7DEB7382E292E0E94F81462
:102A5000432D522D60E080E00E947D14C32CD22CC7
:102A6000612C712C53018FEFA81AB80A430191E031
:102A7000891A91080E941111823011F474010EC05C
:102A8000833011F475010AC0883009F450C08C30CD
:102A900009F44DC08B3009F44CC07301E614F704FF
:102AA00049F3032D122D3D822E82412C512C90E0B2
:102AB0004E145F043CF4602F512FF80141918F01B7
:102AC000411111C08D819E818C159D0599F20E9446
:102AD000F8144D815E8160E080E00E947D14CD801D
:102AE000DE803701BFCF47FF0CC0842F49835C8352
:102AF0006B839A830E94491149815C816B819A8121
:102B000001C081E0282F332727FD3095290F311D83
:102B100097FD3A952131310514F44A3061F49FEF65
:102B2000491A590A4A3051F41E830D83C0CF81E0FF
:102B30000AC080E008C06D815E8101C090E0980FFE
:102B40006D835E83B5CF26960FB6F894DEBF0FBEB9
:102B5000CDBFDF91CF911F910F91FF90EF90DF904C
:102B6000CF90BF90AF909F908F907F906F905F902D
:102B70004F903F902F9008950F931F93CF93DF9323
:102B8000CDB7DEB764970FB6F894DEBF0FBECDBFEA
:102B90004AE08E010F5F1F4FB8010E944339F801D0
:102BA00001900020E9F73197E01BF10BD801AE0F3F
:102BB000B11DE7FDBA958FE28C93EF5FB8016E0F00
:102BC000711DE7FD7A954AE088EE93E00E94433953
:102BD000C8010E940D1564960FB6F894DEBF0FBEB3
:102BE000CDBFDF91CF911F910F9108950F931F9348
:102BF000CF93DF93182F062FD42FC0E0CD1744F4C6
:102C000040E2602F8C2F810F0E942C14CF5FF6CFF3
:102C1000DF91CF911F910F91089545E061E080E031
:102C20000E94F615E091E105EE0FFF0BE252FB4F1B
:102C30004591549161E080E00C94BC144BE061E05C
:102C400085E00E94F615A091E105EA2FEE0FFF0B3B
:102C5000E65EFA4F45915491BB27A7FDB095A45E5F
:102C6000BE4F8C91FA01E80FF11D87FDFA95449152
:102C7000403231F44DEC54E061E085E00C94BC143A
:102C800061E085E00C944F14EF92FF920F931F9335
:102C9000CF93DF931F92CDB7DEB740E160E080E0D5
:102CA0000E94F6154FE560E088E00E942C14E09049
:102CB000DF05F090E00509E0E091DD05F091DE052B
:102CC000EE0DFF1D10811A3049F4E090DF05F09001
:102CD000E00581E0E81AF10818E02FC01123A9F3FC
:102CE000412F60E0802F0E944F14EFEFEE1AFE0A92
:102CF00017FF04C0812F0E94491101C081E0080F15
:102D00000031D4F2E2CFE091DD05F091DE05EE0D69
:102D1000FF1D40814A30B1F0F1E0EF1AF10847FFA2
:102D20000FC0842F49830E9449114981181B60E01C
:102D3000812F0E944F1411162CF4F7FC03C0E3CF2F
:102D400081E0F4CF0F90DF91CF911F910F91FF9011
:102D5000EF900895CF93DF930E9444160E940D16C2
:102D60000E941E16A091DD05B091DE05FD010190C7
:102D70000020E9F73197EA1BFB0BF0931B01E0936E
:102D80001A01C8E00E941111811116C02091DF05BF
:102D90003091E005121613060CF0E0C0E091DD055D
:102DA000F091DE05E20FF31F319790819A3009F41C
:102DB000D5C02150310915C08130C1F42091DF0503
:102DC0003091E005E091DD05F091DE05E20FF31FA3
:102DD00090819A3009F4C2C0992309F4BFC02F5FD3
:102DE0003F4F3093E0052093DF053CC18230C9F4AA
:102DF0004091DD055091DE052091DF053091E00521
:102E0000121613060CF02EC1215031093093E00543
:102E10002093DF05FA01E20FF31F90819A3061F7EA
:102E200021C1833059F54091DD055091DE05209197
:102E3000DF053091E005FA01E20FF31F908199233D
:102E400041F02F5F3F4F3093E0052093DF059A302C
:102E500071F72091DF053091E005FA01E20FF31FD1
:102E600090819A3009F4FEC0992309F4FBC02F5FCA
:102E70003F4F3093E0052093DF05EBCF863061F4C0
:102E80008091250181117ECF8091E105815087FFDE
:102E90000FC0C093E10511C0D0E0873089F4809164
:102EA000250181116FCF8091E1058F5F893018F482
:102EB0008093E10502C01092E1050E940D16CBC07F
:102EC000843091F4E091E105FF27E7FDF095DF0103
:102ED000A45EBE4F8C91815087FFBCC0EB52FB4F6C
:102EE000E491E150EC93B7C08530E1F48091E105C5
:102EF000992787FD9095FC01E45EFE4F40814F5F6E
:102F0000FC01EB52FB4FE491242F332727FD309532
:102F1000F0E0DC01A45EBE4F2E173F070CF4A4C006
:102F20001C9299C08830D9F4A091E105EA2FEE0FE8
:102F3000FF0BE65EFA4F85919491BB27A7FDB095F4
:102F4000A45EBE4F2C91FC01E20FF11D27FDFA9506
:102F500084910E945D11811189C076C0D0E08A30D1
:102F600029F40E945D11811172C06EC0893021F573
:102F70008091DF059091E005181619060CF064C0E9
:102F8000E091DD05F091DE05E80FF91F2081319712
:102F90002083222311F00196F3CF8091DF059091D9
:102FA000E00501979093E0058093DF0580911A0179
:102FB00090911B0101973FC08D3009F041C0809175
:102FC000DF059091E0054091DD055091DE05FA01A5
:102FD000E80FF91FDF01181619063CF42E912A306C
:102FE00021F00197F8CF662331F09F01241B350BA8
:102FF00061916A30C1F7A901481B590B6091DD0549
:103000007091DE05FB01E20FF31FA081F901E41BC3
:10301000F50BE60FF71FA083AA2319F02F5F3F4F90
:10302000EDCF9093E0058093DF0580911A01909198
:103030001B01841B950B90931B0180931A0107C001
:103040008C3061F08B3061F0DD2309F49BCE0E945F
:10305000441698CE8C930E941E1694CE81E008C030
:1030600080E006C0D1E07BCF4C93F5CFD1E0ECCF30
:10307000DF91CF910895EF92FF920F931F93CF931B
:10308000DF93CDB7DEB7EDB6FEB620E030E0FC0151
:10309000E20FF31FE4912F5F3F4FE111F8CF4DB7DF
:1030A0005EB7421B530B0FB6F8945EBF0FBE4DBF09
:1030B0000DB71EB70F5F1F4FBC01C8010E94D80497
:1030C000C8010E940D150FB6F894FEBE0FBEEDBEEE
:1030D000DF91CF911F910F91FF90EF9008950F9383
:1030E0001F93CF93DF938C0180E090E0F801E80F0D
:1030F000F91FE491E1110CC00E948405EC010097D6
:1031000049F088819981B80102960E94D80402C0D2
:103110000196ECCFCE01DF91CF911F910F910895D1
:103120001F93CF93DF93CDB7DEB765970FB6F894B3
:10313000DEBF0FBECDBFFC011081113081F4418193
:10314000528163817481CE0101960E94F207AE0123
:103150004F5F5F4F61E081E00E947D1416C0123026
:1031600069F40180F281E02D408151814E5F5F4F13
:1031700061E081E00E947D1411E007C081E393E0EB
:1031800090930B0180930A0110E0812F65960FB692
:10319000F894DEBF0FBECDBFDF91CF911F91089590
:1031A0007F928F929F92AF92BF92CF92DF92EF92D7
:1031B000FF920F931F93CF93DF936C01FB0100816C
:1031C0001181E801E990F9900E94F814F60140811C
:1031D00051814E5F5F4F60E080E00E947D144AE2C3
:1031E00061E080E00E942C14CE010E9490188111B1
:1031F00002C08EEF44C0712C6701F1E0CF1AD108F4
:10320000C72DDD27C7FDD0955E018FEFA81AB80A3C
:103210004E01E1E08E1A91080E941111982F9D7FB6
:1032200029F4940197FE0CC096010AC0913039F43C
:103230009501AE14BF0424F020E030E001C09E01EF
:10324000982F9B7F9830C1F08B30C1F02C173D0731
:1032500019F3722EE801F5E02F02C00DD11D1124E3
:1032600022964FE061E081E00E94F615CE010E94B7
:1032700090188111C5CFBDCF872D01C08FEFDF9191
:10328000CF911F910F91FF90EF90DF90CF90BF9063
:10329000AF909F908F907F9008954F925F927F9212
:1032A0008F929F92AF92BF92CF92DF92EF92FF9256
:1032B0000F931F93CF93DF9300D0CDB7DEB75C01A0
:1032C000942E842F992787FD909569837A830E9495
:1032D000A7058C0169817A81009711F48EEF3BC0BC
:1032E000FC01E080F1806701F2E0CF0ED11C2B01E0
:1032F000812CE2E07E2E8914ACF4F2018591949148
:103300000E946F1825E0E20EF11CE2E04E0E511C07
:10331000009721F3F7013397708231969183808370
:103320008394E9CFB801C5010E94D018E82EF12C92
:10333000F9146CF4F6012F2D85E02802E00DF11D43
:103340001124818192810E947805F394F1CFC80104
:103350000E9478058E2D0F900F90DF91CF911F91D5
:103360000F91FF90EF90DF90CF90BF90AF909F9024
:103370008F907F905F904F9008958F929F92AF9221
:10338000BF92CF92DF92EF92FF920F931F93CF9352
:10339000DF93EA01480159011016110612061306BF
:1033A0000CF069C0609301017093020180930301E6
:1033B00090930401C12CD12C760111E0299A2DE0C3
:1033C0002A95F1F70000299886E00E94D304299AF3
:1033D0008DE08A95F1F70000299882E00E94D304DD
:1033E00000910101809102010E94D304802F0E946C
:1033F000D304C814D904EA04FB043CF5FE01EC0D27
:10340000FD1D80810E94D3048091010190910201F1
:10341000A0910301B09104010196A11DB11D8093FB
:10342000010190930201A0930301B09304012FEFD7
:10343000C21AD20AE20AF20A8F739927AA27BB2777
:10344000892B8A2B8B2BA9F601C010E0299A8FE7D4
:103450009EE30197F1F700C000001111AFCF8CE996
:103460009FEFAFEFBFEF8093010190930201A09314
:103470000301B0930401DF91CF911F910F91FF9051
:10348000EF90DF90CF90BF90AF909F908F90089576
:10349000AF92BF92CF92DF92EF92FF920F931F9362
:1034A000CF93DF9300D000D0CDB7DEB75C01FC0135
:1034B00001900020E9F73197E81BF90B709718F09D
:1034C0008FE492E068C00E94DE0897FD03C080E1AF
:1034D00092E061C0C12CD12C760101E010E020E027
:1034E00030E0B701A601CE0104960E943E068C8111
:1034F0008F3F09F043C081E08C8301E010E020E0C1
:1035000030E0AE014C5F5F4FC701B6010E94BD19AC
:10351000F50101900020E9F7EA19FB098F0120E08D
:1035200030E0C701B6016F5F7F4F8F4F9F4FA501FE
:103530000E94BD191A8219821B82C701B6016F5EF3
:103540007F4F8F4F9F4F02E010E020E030E0AE0150
:103550004F5F5F4F0E94BD19C701B6016D5E7F4F7F
:103560008F4F9F4F01E010E020E030E0AE014D5F53
:103570005F4F0E94BD19B601C70115C084E0D80E87
:10358000E11CF11CC11480E8D806E104F10409F043
:10359000A4CF87E392E090930B0180930A016FEF31
:1035A0007FEF8FEF9FEF0F900F900F900F90DF91B5
:1035B000CF911F910F91FF90EF90DF90CF90BF9030
:1035C000AF900895CF92DF92EF92FF920F931F93E7
:1035D000CF93DF936B017C01EA01FA010190002097
:1035E000E9F78F0101501109041B150B003111057A
:1035F0001CF08FE492E007C0CA010E94DE0897FD2C
:1036000008C080E192E090930B0180930A0180E072
:1036100010C00F5F1F4F222717FD2095322FC701C3
:10362000B6016F5F7F4F8F4F9F4FAE010E94BD1954
:1036300081E0DF91CF911F910F91FF90EF90DF908C
:10364000CF9008952F923F924F925F926F927F9208
:103650008F929F92AF92BF92CF92DF92EF92FF92A2
:103660000F931F93CF93DF93CDB7DEB7A0970FB61D
:10367000F894DEBF0FBECDBF5C012DB73EB738A3B7
:103680002F8FDC0153968C9153978A3BD1F55C9632
:10369000ED91FC915D978081813059F44181528197
:1036A00063817481CE0101960E94F207CE010196DA
:1036B00008C0823059F40180F281E02D808191812F
:1036C00002960E940D1581111EC006C081E393E091
:1036D00090930B0180930A0180910A0190910B0154
:1036E000892B69F0F501808D918DA28DB38D80932A
:1036F000D7059093D805A093D905B093DA0581E05A
:10370000FAC21A8E02C0B1E0BA8FF50183898B3BF1
:1037100009F064C00DB71EB785E690E0998F888FD9
:10372000888D998D2DB73EB7281B390B0FB6F894AD
:103730003EBF0FBE2DBF8DB79EB701967C018DB7E2
:103740009EB784569109845E954009F03CF4808DC3
:10375000918DA28DB38D2CE231E020C0EDB7FEB784
:10376000118240E064E670E0C7010E94E1050E941A
:10377000AA16811104C081E0D5018C932AC082E091
:10378000F5018483C7010E946A070097D9F4F50107
:10379000808D918DA28DB38D2FE832E030930B0197
:1037A00020930A018093D7059093D805A093D9055B
:1037B000B093DA0581E080830FB6F8941EBF0FBE88
:1037C0000DBFA7C2D50116969C938E931597B1E0B5
:1037D000BA8F0FB6F8941EBF0FBE0DBFF5018389D7
:1037E0008C3BC9F50DB71EB785E190E09F8B8E8BA2
:1037F0008E899F892DB73EB7281B390B0FB6F894D9
:103800003EBF0FBE2DBF8DB79EB701967C01ADB7F1
:10381000BEB711961C9241E064E170E00E94E105A0
:103820000E94AA16811104C081E0F50180830EC0B8
:1038300081E0D50114968C93C7010E941439F501DB
:103840006583768387839087F1E0FA8F0FB6F894CB
:103850001EBF0FBE0DBFD50153968C9153978D3B64
:10386000D9F55C96ED91FC915D978081823009F0ED
:10387000AEC18581833009F0AAC1668177818181DB
:1038800092810E94D018682F8E3F81F4F501808DBF
:10389000918DA28DB38D8093D7059093D805A09379
:1038A000D905B093DA0581E0808333C281E06F3FB0
:1038B00009F421C2F5018483772767FD7095872F6E
:1038C000972F0E941B35D50115966D937D938D938F
:1038D0009C931897B1E0BA8FF50183898E3B11F55F
:1038E000048CF58DE02D8081823009F070C101805B
:1038F000F281E02D8081918102960E94DE0821E014
:10390000D50114962C9397FD05C080E090E0A0E8C7
:10391000BFE303C080E090E0DC01F501858396837E
:10392000A783B087D50153968C9153978F3B89F528
:103930005C96ED91FC915D978081823009F0A1C188
:103940000180F281E02D8081918102960E94DE0843
:1039500097FDB8C1AB01BC014F5E5F4F6F4F7F4F0A
:1039600002E010E020E030E0CE0101960E943E0629
:1039700081E0D50114968C9369817A81882777FD3F
:103980008095982F0E941B35F50165837683878388
:103990009087D50153968C915397803C91F45C9617
:1039A000ED91FC915D978081823009F06AC10180C0
:1039B000F281E02D8081918102960E94481A97FD44
:1039C00065CFD50153968C915397813CE9F45C9671
:1039D000ED91FC915D978081823009F052C10180A8
:1039E000F281E02D8081918102960E94DE0897FD90
:1039F00069C12FEF298301E010E020E030E0AE0143
:103A00004F5F5F4F0E94BD19D50153968C9153971C
:103A1000823C11F55C96ED91FC915D97808182303E
:103A200009F0D5C08581823009F0D1C0A681B78167
:103A30000D911C910180F281E02D8081918102968F
:103A40000E94DE0897FD3EC1A8014E5F5F4F0E94B5
:103A5000E21A882309F41ACFD50153968C91539713
:103A6000833C09F0A6C05C96ED91FC915D97808146
:103A7000823009F0ACC08581813009F0A8C0128580
:103A8000113009F0A4C04680578060847184C384DB
:103A9000D484E584F6840180F281E02D80819181D7
:103AA00002960E94DE086B8F7C8F8D8F9E8F97FF12
:103AB00015C0F501808D918DA28DB38D28E632E081
:103AC00030930B0120930A018093D7059093D8057A
:103AD000A093D905B093DA0510831BC1C701B601C5
:103AE0000E94E8346B017C01C301B2010E94E834FA
:103AF0002B013C0102E010E020E030E04B8D5C8DBA
:103B00006D8D7E8D4F5E5F4F6F4F7F4FCE01019663
:103B10000E943E0657FC05C089819A8148165906C5
:103B20001CF08DE792E008C092012C0D3D1D82171C
:103B300093074CF484E292E090930B0180930A0186
:103B4000812C912C29C0C6010E9484054C0100974C
:103B500019F48FE892E0F0CFDC012D903C908601C3
:103B6000222717FD2095322F4B8D5C8D6D8D7E8D1C
:103B70004D5E5F4F6F4F7F4F662457FC6094762CED
:103B8000440D551D661D771DC10102960E943E061B
:103B9000F101EC0DFD1D12828114910409F476CE21
:103BA00082E0D50114968C93149716969C928E926F
:103BB0001597F5018389843C09F055C0048CF58D77
:103BC000E02D8081823019F48581823041F0F50149
:103BD000808D918DA28DB38D21E333E07AC0A681D3
:103BE000B781ED90FC900180F281E02D8081918180
:103BF00002960E94DE082B013C0197FD63C0F2E0B3
:103C0000EF0EF11CF70101900020E9F73197EE1952
:103C1000FF09FA83E983E93EF3403CF084E292E055
:103C200090930B0180930A0131CE6F5E7F4F8F4FCF
:103C30009F4F02E010E020E030E0AE014F5F5F4FA9
:103C40000E94BD1909811A810F5F1F4F222717FD9E
:103C50002095322FC301B2016D5E7F4F8F4F9F4F72
:103C6000A7010E94BD19D50153968C915397853CAD
:103C700009F044C05C96ED91FC915D9780818230A3
:103C8000B9F058968D919D910D90BC91A02D21E396
:103C900033E030930B0120930A018093D705909372
:103CA000D805A093D905B093DA0581E0F501FCCDE4
:103CB0000180F281E02D8081918102960E94DE08D0
:103CC00097FF0CC0F501808D918DA28DB38D28E6F4
:103CD00032E030930B0120930A01DDCDAB01BC0132
:103CE0004D5E5F4F6F4F7F4FCE0101960E942021A6
:103CF0008981882319F0D5018C930BC0BA8DBB2321
:103D000041F00E94F8144AED53E060E080E00E9428
:103D1000BC14EF8DF8A10FB6F894FEBF0FBEEDBF37
:103D2000A0960FB6F894DEBF0FBECDBFDF91CF9146
:103D30001F910F91FF90EF90DF90CF90BF90AF90C9
:103D40009F908F907F906F905F904F903F902F90BB
:103D500008953F924F925F926F927F928F929F92BF
:103D6000AF92BF92CF92DF92EF92FF920F931F9389
:103D7000CF93DF93CDB7DEB763970FB6F894DEBF6E
:103D80000FBECDBF7C01462ECDB6DEB6FC018489C8
:103D90009589A689B7890196A11DB11D848B958B44
:103DA000A68BB78BE389F0E0ED5DFA4F149117FF16
:103DB0000BC0D70158966D917D918D919C915B9729
:103DC0000E94440711E0180FEDB7FEB725E012027C
:103DD000E019F10911240FB6F894FEBF0FBEEDBF34
:103DE0008DB79EB70196812E992487FC9094ADB72C
:103DF000BEB7E4E01E02A019B10911240FB6F89471
:103E0000BEBF0FBEADBF2DB73EB72F5F3F4FD7012F
:103E10005D969C938E935C975F963C932E935E97F2
:103E20002DB73EB724563109245E354009F044F4DD
:103E3000F701808D918DA28DB38D2CE231E087C08A
:103E400020911401309115013F872E8721E0288BA6
:103E5000198A9B8B8A8B5E01FEE0AF0EB11CB0927B
:103E60001501A0921401512CF5E03F2E21E0821A99
:103E700091080CC084899589A689B7890196A11DEE
:103E8000B11D848B958BA68BB78B5394D70151169C
:103E90000CF08AC054964D915D916D917C9157972D
:103EA000652C772467FC70945E96ED91FC915F978A
:103EB000B52D24E0B202E00DF11D112440835183A1
:103EC00062837383D70154964D915D916D917C917E
:103ED000579700E023E6CE0101960E942E208981AB
:103EE000B0921501A092140181115CC08D818823CC
:103EF000E9F1F701A48DB58DF52D25E0F202A00DB5
:103F0000B11D1124FE013596832D01900D928A95E5
:103F1000E1F789898F5F898B6A857B858C859D8593
:103F2000D70154966D937D938D939C935797681406
:103F300079040CF0AACF0E94DE06F7018C3209F456
:103F400099CF808D918DA28DB38D2DEA32E0309383
:103F50000B0120930A018093D7059093D805A09375
:103F6000D905B093DA0581E0808356C0D701539616
:103F70008C9153978F3909F4BCCF58968D919D91B0
:103F80000D90BC91A02D2AE831E030930B012093D5
:103F90000A018093D7059093D805A093D905B093D3
:103FA000DA0581E0F701E0CF53968C9188598B3088
:103FB00030F0F7018389835A8C30D0F412C041105D
:103FC00008C0F701808D918DA28DB38D20EA31E07C
:103FD000BECFC7010E946912D7018C9181111CC00C
:103FE000E8CFC7010E940E0FD7018C91811114C038
:103FF000F70183898A5B8C3038F4C7010E94221B49
:10400000D7018C91811108C0F70183898F5A8B30B9
:1040100018F4C7010E948B0B0FB6F894DEBE0FBEDA
:10402000CDBE0FB6F894DEBE0FBECDBE63960FB602
:10403000F894DEBF0FBECDBFDF91CF911F910F91DE
:10404000FF90EF90DF90CF90BF90AF909F908F90B8
:104050007F906F905F904F903F900895CF92DF9246
:10406000EF92FF920F931F93CF93DF93CDB7DEB7FD
:10407000A2970FB6F894DEBF0FBECDBF7C01122F02
:10408000E0911001F0911101848195819AA389A397
:104090004D8B5E8B6F8B788F498F5A8F6B8F7C8F98
:1040A000CB01BA010E94DE068C8B19821C821B8216
:1040B0001D828DB79EB784569109845E954009F0A4
:1040C0003CF4898D9A8DAB8DBC8D2CE231E0A9C07A
:1040D00080911401909115019F878E87188A198A03
:1040E000CE0105969B8B8A8B6E018EE0C80ED11C8B
:1040F000D0921501C0921401E9A1FAA184818150E6
:10410000823048F4CE0101960E94182289818823CA
:1041100009F45DC064C0CE0101960E940723998115
:1041200091115DC0811141C08C89883229F4CE0182
:1041300001960E94B8256BC098E6980F9E3218F041
:10414000EBE2F6E006C0602FCE0101960E94A91EA8
:104150005EC096E0E033F90709F45DC094913196B2
:104160008913F7CFCE0101960E943E2650C08111DF
:1041700018C02C8980E090E0BC01FC01E65FF94F9B
:10418000E49101962E1320C0FB01E751FA4F649190
:104190006117ECF4CE0101960E94EF2A898181110A
:1041A0001EC0D0921501C09214016D897E898F893D
:1041B000988D0E94DE068C8BCE0101960E9494277A
:1041C00099819923A1F20BC081329105A9F68D89BD
:1041D0009E89AF89B88D8A879B87AC87BD878DE024
:1041E000FE013196D70101900D928A95E1F7C70142
:1041F000A2960FB6F894DEBF0FBECDBFDF91CF9170
:104200001F910F91FF90EF90DF90CF9008958981DB
:10421000882359F2E4CF898D9A8DAB8DBC8D20EA2D
:1042200033E030930B0120930A018093D7059093DC
:10423000D805A093D905B093DA0581E08983CFCF63
:104240006F927F928F929F92AF92BF92CF92DF92A6
:10425000EF92FF920F931F93CF93DF93CDB7DEB70B
:104260002D970FB6F894DEBF0FBECDBF5C016A017B
:104270007B018090140190901501C701B6010E9446
:10428000DE068A3031F42FEFC21AD20AE20AF20AAD
:1042900033C0811109C0D5011C9213961C921E9245
:1042A000129714961C92AEC001E023E6B701A60156
:1042B000CE0101960E942E20898190921501809254
:1042C0001401813019F0823051F419828DE0FE0121
:1042D0003196D50101900D928A95E1F793C08091B6
:1042E0000E0190910F01019690930F0180930E01A2
:1042F000CA84DB84EC84FD8480910C0190910D01D3
:1043000006973CF480910E0190910F014F970CF4A9
:1043100069C08091180190911901009739F0FC0152
:1043200038971082349680819181F7CF00911401E3
:104330001091150101151105D9F1F8018281811142
:1043400004C0848195810E94A211D80112968C919B
:10435000813051F0F8018281823031F50480F5819D
:10436000E02D6280738015C0712CD80113968C915A
:10437000781684F7D80114968D919C911597B72DD6
:10438000E5E0BE02800D911D11240E94A2117394DC
:10439000ECCF6114710441F0C30102960E94A21196
:1043A000F30160807180F5CFD8010D911C91C2CFCF
:1043B0008091180190911901009761F0FC013497E8
:1043C0000081118134972081211102C00E9459057A
:1043D000C801F2CF10920F0110920E0110920D0140
:1043E00010920C018AB18F7080648AB9BAE1BA95D3
:1043F000F1F700C04A9941CF81E0F5018083138233
:1044000012821482C5012D960FB6F894DEBF0FBE3E
:10441000CDBFDF91CF911F910F91FF90EF90DF9073
:10442000CF90BF90AF909F908F907F906F900895A6
:10443000AF92BF92CF92DF92EF92FF920F931F93B2
:10444000CF93DF93CDB7DEB763970FB6F894DEBF97
:104450000FBECDBF5C01DC0153968C91982F9B7FE2
:10446000983911F08F3971F440E050E0BA0182E0E0
:104470000E9428128111A0C0F501808D918DA28D1E
:10448000B38D8FC0893909F06FC0D5019096ED9139
:10449000FC9191971481113009F08EC014825496CA
:1044A0004D915D916D917C9157974F5F5F4F6F4F2D
:1044B0007F4F00E023E6CE0101960E942E20D50119
:1044C0009096ED91FC9191971483C5010D969F876D
:1044D0008E87188A198ACE0105969B8B8A8B09963E
:1044E00090931501809314018981882311F08C9396
:1044F0007DC08A859B85AC85BD85F501848B958BB8
:10450000A68BB78B8D81811107C0808D918DA28D77
:10451000B38D2AE831E009C08130A9F0F501808D22
:10452000918DA28DB38D21E333E030930B01209365
:104530000A018093D7059093D805A093D905B0932D
:10454000DA05108353C020E030E0A9016E817F813D
:10455000888599850E947934882371F1D5019096D8
:10456000ED91FC9191970AC08A3951F4D50190964A
:10457000ED91FC91919784818130F1F414821CC0FB
:104580008B39D1F40E940006811116C0F501808D8F
:10459000918DA28DB38D26E833E030930B012093EB
:1045A0000A018093D7059093D805A093D905B093BD
:1045B000DA0581E080831AC0D5015496CD90DD9054
:1045C000ED90FC905797C701B6010E94DE068A3035
:1045D00041F0882331F0BFEFCB1ADB0AEB0AFB0A6C
:1045E000F2CFF501C48AD58AE68AF78A63960FB6B8
:1045F000F894DEBF0FBECDBFDF91CF911F910F9119
:10460000FF90EF90DF90CF90BF90AF9008956F92A2
:104610007F928F929F92AF92BF92CF92DF92EF9252
:10462000FF920F931F93CF93DF93CDB7DEB72F97F2
:104630000FB6F894DEBF0FBECDBF5C018DB69EB63F
:10464000FC01238980ED820F8A3018F02E3209F0A8
:1046500088C0CDB6DEB685E190E09F878E878E85D7
:104660009F854DB75EB7481B590B0FB6F8945EBFD8
:104670000FBE4DBF8DB79EB701967C01EDB7FEB75B
:104680002183F50184899589A689B7890196A11DA1
:10469000B11D848B958BA68BB78B00E010E0712C3D
:1046A00066246394600EF50164897589868997890B
:1046B0000E94DE0690ED980F9A3000F18E32F1F0F4
:1046C0008536E1F08D32B9F0F701E60DF11D67FC9A
:1046D000FA95108281E0F5018483C7010E941439A4
:1046E000F50165837683878390870FB6F894DEBEE5
:1046F0000FBECDBE20C2F5E67F12E6CFF701E00F78
:10470000F11F8183F50144895589668977894F5F57
:104710005F4F6F4F7F4F448B558B668B778B0F5F4F
:104720001F4F03311105D9F4F501808D918DA28DB4
:10473000B38D2AE631E030930B0120930A01809378
:10474000D7059093D805A093D905B093DA0581E0F9
:1047500080830FB6F894DEBE0FBECDBEEFC1782EBB
:104760009FCF8FEB820F8A3118F02F3509F051C09F
:104770000DB71EB780E190E09A83898389819A8181
:104780002DB73EB7281B390B0FB6F8943EBF0FBEAE
:104790002DBF4DB75EB74F5F5F4F7A01F50144897A
:1047A000558966897789C7010E94F606F501648BF1
:1047B000758B868B978B97FF14C0808D918DA28D02
:1047C000B38D8093D7059093D805A093D905B09366
:1047D000DA0581E080830FB6F8941EBF0FBE0DBFCF
:1047E000ADC1F5011182C7010E94DB11F501938370
:1047F0008283009741F025E0FC01D50114960190D9
:104800000D922A95E1F70FB6F8941EBF0FBE0DBFAB
:1048100092C1273209F05BC0F501648975898689E8
:1048200097896F5F7F4F8F4F9F4F648B758B868B00
:10483000978B0E94DE06182FF50164897589868999
:1048400097896F5F7F4F8F4F9F4F648B758B868BE0
:10485000978B1C3591F40E94DE06182FF501848990
:104860009589A689B7890196A11DB11D848B958B69
:10487000A68BB78B1E3409F41AE0F501648975899B
:10488000868997890E94DE06F501873239F0808D8E
:10489000918DA28DB38D26E133E0C5C084899589C1
:1048A000A689B7890196A11DB11D848B958BA68B16
:1048B000B78B81E08483612F70E080E090E00E94FC
:1048C0001935F501658376838783908734C1223259
:1048D00009F08CC0F501C488D588E688F788FFEF19
:1048E000CF1ADF0AEF0AFF0AF501C48AD58AE68AE1
:1048F000F78A712C00E010E0C701B6010E94DE06C5
:104900008823A9F0772021F00F5F1F4F712C09C079
:104910008C3529F0823259F00F5F1F4F02C0772487
:104920007394FFEFCF1ADF0AEF0AFF0AE5CFC80141
:104930000E9484056C01009709F46EC0FC0100819F
:104940001181712CE12CF12CAAE06A2EF501648909
:104950007589868997890E94DE06811108C0F50154
:10496000808D918DA28DB38D27EF32E05CC07720D2
:1049700069F0F801EE0DFF1D8E3411F4628201C062
:104980008283FFEFEF1AFF0A712C23C08C35F9F0F8
:1049900098012E0D3F1D8232A1F4F501848995897D
:1049A000A689B7890196A11DB11D848B958BA68B15
:1049B000B78BF901128282E0F5018483D682C58229
:1049C000BAC0F9018283FFEFEF1AFF0A02C0772411
:1049D0007394F50184899589A689B7890196A11DEB
:1049E000B11D848B958BA68BB78BB0CF2B3509F07F
:1049F000A4C0F50184899589A689B7890196A11D6E
:104A0000B11D848B958BA68BB78B80E090E00E94C4
:104A1000A7056C010097B1F4F501808D918DA28DF1
:104A2000B38D2FE832E030930B0120930A0180937D
:104A3000D7059093D805A093D905B093DA0581E006
:104A400080837CC083E0F5018483D682C582E12C1B
:104A5000F12CF50164897589868997890E94DE06A3
:104A6000F5018A3011F0811107C0808D918DA28DE2
:104A7000B38D2FED32E034C044895589668977893A
:104A80008D3549F44F5F5F4F6F4F7F4F448B558B90
:104A9000668B778B50C08C3249F44F5F5F4F6F4FFE
:104AA0007F4FF501448B558B668B778BF5014489DD
:104AB00055896689778900E023E6CE0101960E9438
:104AC0002E208981882311F0F5012FC08D8181115D
:104AD0000CC0F501808D918DA28DB38D2AE831E057
:104AE00030930B0120930A0117C08A859B85AC8502
:104AF000BD85F501848B958BA68BB78BAE014B5F83
:104B00005F4FB701C6010E94C309811110C0F501B2
:104B1000808D918DA28DB38D8093D7059093D8050C
:104B2000A093D905B093DA0581E0808304C0FFEF3C
:104B3000EF1AFF0A8ECF81E001C080E00FB6F89433
:104B40009EBE0FBE8DBE2F960FB6F894DEBF0FBE71
:104B5000CDBFDF91CF911F910F91FF90EF90DF902C
:104B6000CF90BF90AF909F908F907F906F9008955F
:104B7000EF92FF920F93CF93DF93CDB7DEB763979A
:104B80000FB6F894DEBF0FBECDBF7C01DC0154969A
:104B90004D915D916D917C9157974F5F5F4F6F4F36
:104BA0007F4FFC01448B558B668B778B00E023E6AF
:104BB000CE0101960E942E20C7010D969F878E87F9
:104BC000188A198AFE013596FB8BEA8BCE010E9668
:104BD00090931501809314018981882319F0D701DE
:104BE0008C9340C06A857B858C859D85D7015496C2
:104BF0006D937D938D939C9357972A8111962C9357
:104C000011972B813C8113963C932E93129725E0AC
:104C1000149601900D922A95E1F70E94DE06F701A5
:104C20008932A9F0808D918DA28DB38D23EC32E075
:104C300030930B0120930A018093D7059093D805F8
:104C4000A093D905B093DA0581E080830BC08489F5
:104C50009589A689B7890196A11DB11D848B958B75
:104C6000A68BB78B63960FB6F894DEBF0FBECDBF91
:104C7000DF91CF910F91FF90EF900895CF92DF9247
:104C8000EF92FF920F931F93CF93DF93CDB7DEB7D1
:104C900063970FB6F894DEBF0FBECDBF7C01DC0179
:104CA00054964D915D916D917C9157974F5F5F4FF9
:104CB0006F4F7F4FFC01448B558B668B778B00E0E9
:104CC00020E0CE0101960E942E20C7010D969F87FD
:104CD0008E87188A198ACE0105969B8B8A8B099636
:104CE00090931501809314018981882319F0D701CD
:104CF0008C930BC11D81111108C0F701808D918D1E
:104D0000A28DB38D2AE831E011C08A859B85AC85E0
:104D1000BD85F701848B958BA68BB78B1130A9F0DD
:104D2000808D918DA28DB38D2FED31E030930B01ED
:104D300020930A018093D7059093D805A093D905B5
:104D4000B093DA0581E08083E0C083898D3239F445
:104D500014838E819F81A885B985B05816C0813291
:104D6000D1F4148320E030E0A9016E817F81888531
:104D700099850E947934811105C080E090E0A0E817
:104D8000BFE303C080E090E0DC01F70185839683F8
:104D9000A783B0876DC08E3799F414836E817F81AD
:104DA000888599850E94E8346095709580959095E6
:104DB0000E941B35F701658376838783908758C0EF
:104DC000853809F055C0CB80DC80C114D104A9F42A
:104DD000F701808D918DA28DB38D28EF31E0309356
:104DE0000B0120930A018093D7059093D805A093D7
:104DF000D905B093DA05108388C08A818183D38274
:104E0000C28281111CC020E030E040E85FE3F6017F
:104E100061817281838194810E940234D60111964E
:104E20006D937D938D939C931497F701148385E084
:104E3000F601D701149601900D928A95E1F79A81B7
:104E40009130B1F4D6018C918F5F8C93F7019483EC
:104E50000280F381E02D608170E080E090E00E94AC
:104E60001935D70115966D937D938D939C93189763
:104E7000F7018389863809F048C00B811C81011530
:104E8000110539F4808D918DA28DB38D28EF31E01D
:104E90004DCF8A8181831383028381111DC020E05D
:104EA00030E040E85FE3F8016181728183819481A1
:104EB0000E940134D80111966D937D938D939C933C
:104EC000149781E0F701848385E0F801D7011496F7
:104ED00001900D928A95E1F79A819130B1F4D80151
:104EE0008C9181508C93F70194830280F381E02DA3
:104EF000608170E080E090E00E941935D70115963E
:104F00006D937D938D939C93189763960FB6F89449
:104F1000DEBF0FBECDBFDF91CF911F910F91FF90EC
:104F2000EF90DF90CF9008952F923F924F925F9233
:104F30006F927F928F929F92AF92BF92CF92DF92A9
:104F4000EF92FF920F931F93CF93DF93CDB7DEB70E
:104F5000A3970FB6F894DEBF0FBECDBF7C012DB76F
:104F60003EB73F8F2E8FDC0153968C915397853837
:104F7000B1F554968D919D910D90BC91A02D019607
:104F8000A11DB11DF701848B958BA68BB78B248156
:104F9000213009F052C1D701028113810115110599
:104FA000B9F18181811112C020E030E040E85FE377
:104FB000F80161817281838194810E940234D80159
:104FC00011966D937D938D939C931497F701218196
:104FD000213009F0E0C2D8018C918F5F4DC0863836
:104FE00009F04CC0F70184899589A689B789019693
:104FF000A11DB11D848B958BA68BB78B248121308D
:1050000009F01BC1D7010281138101151105B9F403
:1050100058968D919D910D90BC91A02D48EF51E037
:1050200050930B0140930A018093D7059093D805C4
:10503000A093D905B093DA05F7012083AFC281812F
:10504000811112C020E030E040E85FE3F8016181A7
:105050007281838194810E940134D80111966D93ED
:105060007D938D939C931497F7012181213009F052
:1050700092C2D8018C9181508C9390C28B3509F0EB
:10508000C5C0F70144895589668977894F5F5F4FAD
:105090006F4F7F4F448B558B668B778B848181114B
:1050A00005C0808D918DA28DB38D20C000E023E6D8
:1050B000CE0101960E942E20C7010D969F878E87F4
:1050C000188A198ACE0105969B8B8A8B0996909334
:1050D000150180931401898181114BC28D81811149
:1050E00008C0F701808D918DA28DB38D2AE831E043
:1050F000AAC06A857B858C859D85D70154966D9362
:105100007D938D939C9357970E94DE06F7018D3512
:1051100039F0808D918DA28DB38D2FED32E093C04B
:1051200084899589A689B7890196A11DB11D848BB3
:10513000958BA68BB78B2D81213009F07DC06E81B8
:105140007F81888599852BA30E94E834D701149626
:105150003C9114972BA1333069F51596ED91FC9194
:105160001697A081B181ED91FC91119777FD03C055
:105170006E177F0744F0F701808D918DA28DB38D5E
:105180002DE732E060C035E0369FF001379FF00D2B
:1051900011243296EA0FFB1FD70111961C9211972A
:1051A0001396FC93EE931297149601900D923A95F4
:1051B000E1F7F4C1323009F03FC0D7011596ED9107
:1051C000FC9116970190F081E02DA081B18177FDCF
:1051D000D2CF6A177B077CF6DB011296AE0FBF1F9A
:1051E00081E0F7018183B383A28384836C9170E0B3
:1051F00080E090E02BA30E941935D70115966D939E
:105200007D938D939C9318972BA1C8C18A538230AC
:1052100008F0C3C1F70184899589A689B7890196E9
:10522000A11DB11D848B958BA68BB78B84818823A0
:1052300009F458CF8430B1F0F701808D918DA28DA3
:10524000B38D2FED31E030930B0120930A01809351
:10525000D7059093D805A093D905B093DA0581E0DE
:10526000808399C14580568067807084C301B201F4
:105270000E944407382EE0911001F0911101FD8F3A
:10528000EC8FCDB6DEB62DB73EB765E086022019AD
:10529000310911240FB6F8943EBF0FBE2DBF8DB754
:1052A0009EB70196D7015D969C938E935C972DB720
:1052B0003EB724563109245E354009F044F4F70125
:1052C000808D918DA28DB38D2CE231E023C0209191
:1052D0001401309115013F872E8721E0288B198A10
:1052E0009B8B8A8B4E01FEE08F0E911C90921501D4
:1052F00080921401A12CB12C10E0B5E02B2E46C0F9
:105300008D81F701811115C0808D918DA28DB38D96
:105310002AE831E030930B0120930A018093D705EE
:105320009093D805A093D905B093DA0581E08083E6
:105330001AC1A48DB58DAA0DBB1DFE013596822D17
:1053400001900D928A95E1F789898F5F898B6A8533
:105350007B858C859D85D70154966D937D938D9328
:105360009C9357970E94DE068C3261F4F701848982
:105370009589A689B7890196A11DB11D848B958B4E
:10538000A68BB78B1F5FF5E0AF0EB11C1315BCF4F5
:10539000D70154964D915D916D917C91579700E0A6
:1053A00023E6CE0101960E942E208981909215015C
:1053B00080921401882309F4A3CFF701B8CFA091FC
:1053C0001001B0911101ED91FC9111973696EA0F01
:1053D000FB1FF0931101E0931001118210821382E0
:1053E00012821582148240E050E0BA0180E00E94EF
:1053F0002812811106C0F701808D918DA28DB38D89
:105400008DCF80911001909111019701235F3F4F43
:105410003D8B2C8B22E02E8B1F8A998F888F5E010B
:10542000F4E1AF0EB11CB0921501A0921401A301DA
:1054300092012F5F3F4F4F4F5F4F212C32140CF4DE
:105440007FC08DB69EB660E170E07B8F6A8F8A8DDB
:105450009B8DADB7BEB7A81BB90B0FB6F894BEBFF6
:105460000FBEADBF0DB71EB70F5F1F4F29013A0129
:10547000C301B2012BA338A349A35AA30E94DE069D
:105480002BA138A149A15AA1642D621B772767FD82
:1054900070958C3231F4BFEF4B1A5B0A6B0A7B0AB2
:1054A0000EC08A3061F0882351F0F801E60FF71F33
:1054B0008083EFEF4E1A5E0A6E0A7E0AD9CFF8019A
:1054C000E60FF71F1082121494F5C8010E94880796
:1054D0000097D9F4F701808D918DA28DB38D2FE8BF
:1054E00032E030930B0120930A018093D70590930B
:1054F000D805A093D905B093DA0581E080830FB673
:10550000F8949EBE0FBE8DBE2EC0D7015C96ED9165
:10551000FC915D97B22D25E0B202E00DF11D112442
:105520003597DC0185E001900D928A95E1F723948F
:105530000FB6F8949EBE0FBE8DBEA30192017ECF22
:105540000FB6F894DEBE0FBECDBEBA01A901CE01E2
:1055500001960E9420218981B0921501A092140128
:10556000811107C009C00FB6F894DEBE0FBECDBED4
:1055700012C0D7018C930FC0EC8DFD8DF0931101FB
:10558000E093100185E0FE013596D7011496019055
:105590000D928A95E1F721E001C020E0822F2E8D47
:1055A0003F8D0FB6F8943EBF0FBE2DBFA3960FB62A
:1055B000F894DEBF0FBECDBFDF91CF911F910F9149
:1055C000FF90EF90DF90CF90BF90AF909F908F9023
:1055D0007F906F905F904F903F902F9008952F9203
:1055E0003F924F925F926F927F928F929F92AF9273
:1055F000BF92CF92DF92EF92FF920F931F93CF93C0
:10560000DF93CDB7DEB7A4970FB6F894DEBF0FBE19
:10561000CDBF1C01262F4DB75EB759A348A3DC01AF
:1056200054964D915D916D917C9157974F5F5F4F6F
:105630006F4F7F4FFC01448B558B668B778B00E05F
:10564000CE0101960E942E20C1010D969F878E8764
:10565000188A198AAE014B5F5F4F5B8B4A8BCE0174
:105660000E9690931501809314018981882319F077
:10567000D1018C935BC42D81211102C0F101ABC11A
:105680008A859B85AC85BD85F101848B958BA68B26
:10569000B78B4580568067807084CE80DF80E88439
:1056A000F984C301B2012CA34AA35BA30E94E8348E
:1056B000162F072F8A8F9B8FC701B6010E94E834EF
:1056C0006E8B7F8B888F998FD10153963C91539726
:1056D00085E7830F2CA14AA15BA18D3008F074C12E
:1056E0001296ED91FC9113973097B9F458968D91DD
:1056F0009D910D90BC91A02D28EF31E030930B01CE
:1057000020930A018093D7059093D805A093D905DB
:10571000B093DA0581E0F10117C3D10111968C91A4
:10572000811109C0B081BC8FB130B1F48180928009
:10573000A380B48011C0813079F4608170E080E092
:1057400090E02CA33AA30E9419354B015C013AA1C9
:105750002CA13B38A9F505C03B3879F53C8D31309B
:10576000A9F4213041F0F101808D918DA28DB38D8E
:105770002FED31E0DCC2A7019601C501B4010E9402
:1057800002344B015C01F1E0FC8F1DC03C8D3230D6
:1057900051F7223041F7A181B2810D90BC91A02D2B
:1057A0006D917C91CF010E94D90A81110CC0F10149
:1057B000808D918DA28DB38DBEC2FC8DF13099F696
:1057C000213089F62C8FD10153968C918C3839F485
:1057D000A7019601C501B4010E940134D3C08D38E0
:1057E00039F4A7019601C501B4010E94A036CAC0D0
:1057F0008E3889F420E030E0A901C701B6010E948B
:105800007934882309F48CC2A7019601C501B4013B
:105810000E948034B7C08F38A9F420E030E0A9019D
:10582000C701B6010E947934882309F479C2612F37
:10583000702F8A8D9B8D2E893F89488D598D0E94AE
:10584000AC339EC08039C9F401E020E030E0A9010A
:10585000C301B2010E947934811101C000E011E05E
:1058600020E030E0A901C701B6010E94793481111E
:1058700001C010E0602F61231AC08139E1F401E01A
:1058800020E030E0A901C301B2010E947934811106
:1058900001C000E011E020E030E0A901C701B6013D
:1058A0000E947934811101C010E0602F612B70E0FB
:1058B00080E090E065C08239C9F401E020E030E08A
:1058C000A901C301B2010E947934811101C000E035
:1058D00011E020E030E0A901C701B6010E9479344F
:1058E000811101C010E0602F6127E1CF833969F495
:1058F000612F702F8A8D9B8D2E893F89488D598D00
:1059000062237323842395233BC0843969F4612F78
:10591000702F8A8D9B8D2E893F89488D598D622BE2
:10592000732B842B952B2CC0853969F4612F702F34
:105930008A8D9B8D2E893F89488D598D62277327CB
:10594000842795271DC0863969F4612F702F8A8DB1
:105950009B8D0E8804C0660F771F881F991F0A94BD
:10596000D2F70EC0873981F4612F702F8A8D9B8DFD
:105970000E8804C095958795779567950A94D2F718
:105980000E941B354B015C013C8D313009F0CEC2C9
:10599000D10111968C911197811108C01296ED9149
:1059A000FC91139781829282A382B482F10181815A
:1059B000813009F0BBC202811381C501B4010E948C
:1059C000ED34D8016C93B2C23D3309F4C9C0F10182
:1059D0008481811107C0808D918DA28DB38D2AE8BD
:1059E00031E0A5C13B3209F062C0813089F4213039
:1059F00009F0B9CEA7019601C301B2010E94023499
:105A0000D10115966D937D938D939C93189743C107
:105A1000823009F0A8CE223009F0A5CE0580F681AB
:105A2000E02D40815181EE81FF81208131813D8FC8
:105A30002C8FDA01AD90BC90F9010190F081E02D3E
:105A4000FF8FEE8FCF018A0D9B1D4AA35BA30E949F
:105A500084054C014AA15BA1009741F4F101808DBE
:105A6000918DA28DB38D2FE832E061C1DC012D91C3
:105A70003C91BA016E5F7F4FA501C90102962CA32C
:105A80003AA30E941839C50102964E8D5F8D4F5F73
:105A90005F4F6C8D7D8D6E5F7F4F2CA13AA1820F81
:105AA000931F0E941839F10196828582F4C037381D
:105AB00041F5813051F4213009F055CEA70196010E
:105AC000C301B2010E9479343BC0823009F04BCE51
:105AD000223009F048CE858196816E817F8121E058
